:100000000C941A010C944B010C944B010C944B0171
:100010000C944B010C944B010C944B010C944B0130
:100020000C944B010C944B010C944B010C944B0120
:100030000C944B010C944B010C944B010C944B0110
:100040000C944B010C949F040C944B010C944B01A9
:100050000C944B010C944B010C944B010C94CB036E
:100060000C944B010C944B010C944B010C944B01E0
:100070000C944B010C944B010C944B010C944B01D0
:100080000C9471040C944B010C944B010C944B0197
:100090000C944B010C944B010C944B010C944B01B0
:1000A0000C944B010C944B010C9443040C944B01A5
:1000B0000C944B010C944B010C944B010C941504C3
:1000C0000C944B010C944B010C944B010C944B0180
:1000D0000C944B010C944B010C944B010C944B0170
:1000E0000C944B010C94E0010C94E4010C94F2018B
:1000F0000C94E8010C94B7010C94EE010C949C0153
:100100000C94D2010C94C2010C94CC010C94C80143
:100110000C94BF010C94B3010C9425060C94BB0104
:100120000C94A1010C94DA010C94D60100000A0B86
:1001300002090C0D0E080703040100000000000076
:1001400000000000000000000000000000000000AF
:10015000000000000000000012111000000000006C
:10016000000000000000000000000000000000008F
:10017000000000002200250028002B002E00310086
:10018000340002010000050108010B0100002100FC
:10019000240027002A002D00300033000101000058
:1001A000040107010A0105050505070508080808F7
:1001B000020202020A0A08080404040401010101FF
:1001C00001010101030303030303030304070707FA
:1001D0000C0C0C0C0C0C0C0C02020202060606069F
:1001E000060606060B0B0B0B0B0B0B0B010210206C
:1001F000200808102040102040800201020108045D
:1002000002010102040810204080804020100804F0
:100210000201800402018040201008040201080449
:10022000020101020408102040800102040810208D
:100230004080250611241FBECFEFD1E2DEBFCDBF27
:1002400000E00CBF12E0A0E0B2E0E6EAFDE000E072
:100250000BBF02C007900D92A030B107D9F722E082
:10026000A0E0B2E001C01D92AC3AB207E1F711E0A4
:10027000CAE1D1E000E006C021970109802FFE010C
:100280000E94C906C931D10780E00807A9F70E947A
:10029000CD040C94D1060C94000090E0FC01E451D4
:1002A000FE4F24918A559E4FFC018491882399F03A
:1002B00090E0880F991FFC01E457FE4FA591B4917F
:1002C000FC01EE58FE4F859194918FB7F894EC9114
:1002D000E22BEC938FBF0895282F30E0F901E45D05
:1002E000FE4F9491F901E451FE4F44912A553E4F3F
:1002F000F9012491222309F435C0992311F1915079
:100300009231F8F4E92FF0E08827E657FE4F8F4F3F
:100310000C94C906BB01BF019C01B301B701A10147
:10032000C201C801CC01D201D601DA01E001E40129
:10033000A101E801EE01F201809180008F778093A6
:100340008000E22FF0E0EE0FFF1FEE58FE4FA59168
:10035000B4918FB7F894EC91611148C040954E2349
:100360004C938FBF0895809180008F7DE8CF80915E
:100370008000877FE4CF84B58F7784BDE2CF84B5DA
:100380008F7DFBCF8091B0008F778093B000D9CF65
:100390008091B0008F7DF9CF809190008F7780930E
:1003A0009000CFCF809190008F7DF9CF8091900009
:1003B000877FF5CF8091A0008F778093A000C1CF79
:1003C0008091A0008F7DF9CF8091A000877FF5CF2D
:1003D000809120018F7780932001B3CF80912001FD
:1003E0008F7DF9CF80912001877FF5CF4E2BB8CF3D
:1003F0003FB7F8948091A8029091A902A091AA0217
:10040000B091AB0226B5A89B05C02F3F19F001960D
:10041000A11DB11D3FBFBA2FA92F982F8827BC015E
:10042000CD01620F711D811D911D42E0660F771F86
:10043000881F991F4A95D1F708958F929F92AF9286
:10044000BF92CF92DF92EF92FF920E94F8014B0190
:100450005C0188EEC82E83E0D82EE12CF12C0E949E
:10046000F801681979098A099B09683E734081057A
:100470009105A8F321E0C21AD108E108F10888EE3D
:10048000880E83E0981EA11CB11CC114D104E104A4
:10049000F10429F7FF90EF90DF90CF90BF90AF90DD
:1004A0009F908F900895CF92DF92EF92FF92CF931B
:1004B000DF93EC01603282E07807CCF5653B710593
:1004C00014F064EB70E0898128E830E0281B3109E2
:1004D00087FD3395220F331F220F331F6901330F1E
:1004E000EE08FF088A8128E532E0281B310987FDE4
:1004F0003395220F331F220F331F032E000C440BA2
:10050000550B2C193D094E095F09DB0177FF02C02D
:10051000B0E0A0E00E94840624EB30E040E050E030
:100520000E945A06C20ED31EE41EF51EB601E881D3
:10053000E03370F5298188E890E0821B910927FD5E
:100540009395880F991F880F991F681779077CF07A
:100550002A8188E592E0821B910927FD9395880FF7
:10056000991F880F991F681779070CF4CB01029720
:10057000880F991F4FB7F8942E2F30E0F901EE0F36
:10058000FF1FE20FF31FEB5FFD4F928381834FBF8D
:10059000DF91CF91FF90EF90DF90CF900895813061
:1005A000910581F41092800082E080938100109286
:1005B000850010928400B19A80916F0082608093D0
:1005C0006F0008958230910569F41092900082E0E6
:1005D00080939100109295001092940088BB8093B4
:1005E000710008958330910569F41092A00082E0B3
:1005F0008093A1001092A5001092A40089BB809363
:1006000072000895892B61F41092200182E080939A
:10061000210110922501109224018ABB809373005E
:100620000895AF92BF92CF92DF92EF92FF920F9315
:100630001F93CF93DF936B017A01EC01CF5FDD4F06
:1006400028813CE0389F8001399F100D1124A09033
:100650000002B12C27FF1FC0FB011182108288818C
:100660008F5F888388819801280F311D87FD3A9517
:10067000F6012A153B051CF488818C30C4F1808179
:100680009181049680349C4908F473C0F6018081FE
:100690009181049670C088819801280F311D87FDD3
:1006A0003A952A153B05DCF68881A801480F511DB3
:1006B00087FD5A95FA01EE0FFF1FE40FF51FEB5F60
:1006C000FD4F808186FFCBCF8881F801E80FF11DB7
:1006D00087FDFA95CF01EE0FFF1FE80FF91FEB5FC3
:1006E000FD4F808160E08F730E946C01B8CF8081E4
:1006F00091812881A801420F511D27FD5A959A0129
:10070000FA01EE0FFF1FE20FF31FEB5FFD4F218198
:100710003281820F931FF701918380838881980132
:10072000280F311D87FD3A95F901EE0FFF1FE20FEB
:10073000F31FEB5FFD4F808186FF22C08881080F89
:10074000111D87FD1A95F801EE0FFF1FE00FF11F35
:10075000EB5FFD4F808161E08F73DF91CF911F913F
:100760000F91FF90EF90DF90CF90BF90AF900C94DF
:100770006C0180E49CE9F701918380838FEF88838B
:10078000DF91CF911F910F91FF90EF90DF90CF906D
:10079000BF90AF9008951F920F920FB60F92112441
:1007A0002F933F938F939F93AF93BF938091A40216
:1007B0009091A502A091A602B091A7023091A30248
:1007C00023E0230F2D3758F50196A11DB11D20936D
:1007D000A3028093A4029093A502A093A602B093D3
:1007E000A7028091A8029091A902A091AA02B091BB
:1007F000AB020196A11DB11D8093A8029093A9029E
:10080000A093AA02B093AB02BF91AF919F918F9139
:100810003F912F910F900FBE0F901F90189526E8D3
:10082000230F0296A11DB11DD2CF1F920F920FB6BA
:100830000F9211240BB60F922F933F934F935F9318
:100840006F937F938F939F93AF93BF93EF93FF9398
:1008500048E251E064E271E090E080E00E94110320
:10086000FF91EF91BF91AF919F918F917F916F9188
:100870005F914F913F912F910F900BBE0F900FBE44
:100880000F901F9018951F920F920FB60F92112480
:100890000BB60F922F933F934F935F936F937F937A
:1008A0008F939F93AF93BF93EF93FF9348EA50E0EA
:1008B00064EA70E083E090E00E941103FF91EF9101
:1008C000BF91AF919F918F917F916F915F914F9168
:1008D0003F912F910F900BBE0F900FBE0F901F9066
:1008E00018951F920F920FB60F9211240BB60F920C
:1008F0002F933F934F935F936F937F938F939F9328
:10090000AF93BF93EF93FF9348E950E064E970E041
:1009100082E090E00E941103FF91EF91BF91AF91AF
:100920009F918F917F916F915F914F913F912F9107
:100930000F900BBE0F900FBE0F901F9018951F9237
:100940000F920FB60F9211240BB60F922F933F9375
:100950004F935F936F937F938F939F93AF93BF93C7
:10096000EF93FF9348E850E064E870E081E090E0A6
:100970000E941103FF91EF91BF91AF919F918F91D1
:100980007F916F915F914F913F912F910F900BBE8F
:100990000F900FBE0F901F901895789484B58260C9
:1009A00084BD84B5816084BD85B5826085BD85B513
:1009B000816085BD80916E00816080936E00109291
:1009C000810080918100826080938100809181000C
:1009D000816080938100809180008160809380009D
:1009E0008091B10084608093B1008091B0008160FB
:1009F0008093B000809191008260809391008091FB
:100A0000910081608093910080919000816080933B
:100A100090008091A10082608093A1008091A1004C
:100A200081608093A1008091A00081608093A000EC
:100A30008091210182608093210180912101816058
:100A40008093210180912001816080932001809119
:100A50007A00846080937A0080917A00826080932B
:100A60007A0080917A00816080937A0080917A0088
:100A7000806880937A001092C10080919502803343
:100A800008F042C088E00E944D0180919502282F15
:100A900030E0F901EE0FFF1FE20FF31FEB5FFD4F98
:100AA0009081907C986090831092960210929702A9
:100AB0002CE0622F0E94BD0690E0829FB0011124BD
:100AC00030E020E0AB01420F531FFA01EE0FFF1F91
:100AD000E40FF51FEB5FFD4F408146FD07C02F5F20
:100AE0003F4F2C30310571F70E94CF02E091950203
:100AF0008E2F90E0FC01EE0FFF1FE80FF91FEB5F58
:100B0000FD4F80818064808380919802803308F05B
:100B100042C089E00E944D0180919802282F30E068
:100B2000F901EE0FFF1FE20FF31FEB5FFD4F908106
:100B3000907C996090831092990210929A022CE016
:100B4000622F0E94BD0690E0829FB001112430E028
:100B500020E0AB01420F531FFA01EE0FFF1FE40F1D
:100B6000F51FEB5FFD4F408146FD07C02F5F3F4FF4
:100B70002C30310571F70E94CF02E09198028E2F40
:100B800090E0FC01EE0FFF1FE80FF91FEB5FFD4F38
:100B90008081806480836CEA70E088E992E00E9442
:100BA00053026CEA70E085E992E00E9453020E94D1
:100BB0001D028CEAE82EF12C00E010E0CC24C39456
:100BC000D12C8091A1029091A202892BB9F51092AB
:100BD000A00210929F02C0919F02D091A002C53046
:100BE000D10544F580919D0290919E02C29690930A
:100BF0009E0280939D0220919B0230919C02285D71
:100C00003F4F30939C0220939B02B701681B790BE6
:100C100088E992E00E9453026CE570E085E992E079
:100C20000E9453020E941D022196D093A002C093FD
:100C30009F02D1CFD092A202C092A102011511054C
:100C400009F4BFCF0E940000BCCF80910002803326
:100C500048F591E0980F909300028093950290E000
:100C6000FC01EE0FFF1FE80FF91FEB5FFD4F88EB54
:100C70009BE092838183809100028033B8F491E0FD
:100C8000980F909300028093980290E0FC01EE0F81
:100C9000FF1FE80FF91FEB5FFD4F88EB9BE092838E
:100CA000818308958FEF80939502E5CF8FEF809336
:100CB00098020895052E97FB1EF400940E94710679
:100CC00057FD07D00E948C0607FC03D04EF40C940D
:100CD000710650954095309521953F4F4F4F5F4F8E
:100CE000089590958095709561957F4F8F4F9F4F98
:100CF00008950E94AE06A59F900DB49F900DA49FED
:100D0000800D911D11240895B7FF0C9479060E945F
:100D10007906821B930B0895A1E21A2EAA1BBB1B16
:100D2000FD010DC0AA1FBB1FEE1FFF1FA217B307B7
:100D3000E407F50720F0A21BB30BE40BF50B661FCD
:100D4000771F881F991F1A9469F760957095809591
:100D500090959B01AC01BD01CF010895A29FB00108
:100D6000B39FC001A39F700D811D1124911DB29FDF
:100D7000700D811D1124911D0895991B79E004C007
:100D8000991F961708F0961B881F7A95C9F78095CA
:100D90000895EE0FFF1F881F8BBF0790F691E02D7F
:060DA0001994F894FFCF46
:00000001FF
